{
  "contractName": "Exchange",
  "abi": [
    {
      "constant": true,
      "inputs": [
        {
          "name": "numerator",
          "type": "uint256"
        },
        {
          "name": "denominator",
          "type": "uint256"
        },
        {
          "name": "target",
          "type": "uint256"
        }
      ],
      "name": "isRoundingError",
      "outputs": [
        {
          "name": "",
          "type": "bool"
        }
      ],
      "payable": false,
      "stateMutability": "view",
      "type": "function"
    },
    {
      "constant": true,
      "inputs": [
        {
          "name": "",
          "type": "bytes32"
        }
      ],
      "name": "filled",
      "outputs": [
        {
          "name": "",
          "type": "uint256"
        }
      ],
      "payable": false,
      "stateMutability": "view",
      "type": "function"
    },
    {
      "constant": true,
      "inputs": [
        {
          "name": "",
          "type": "bytes32"
        }
      ],
      "name": "cancelled",
      "outputs": [
        {
          "name": "",
          "type": "uint256"
        }
      ],
      "payable": false,
      "stateMutability": "view",
      "type": "function"
    },
    {
      "constant": false,
      "inputs": [
        {
          "name": "orderAddresses",
          "type": "address[5][]"
        },
        {
          "name": "orderValues",
          "type": "uint256[6][]"
        },
        {
          "name": "fillTakerTokenAmount",
          "type": "uint256"
        },
        {
          "name": "shouldThrowOnInsufficientBalanceOrAllowance",
          "type": "bool"
        },
        {
          "name": "v",
          "type": "uint8[]"
        },
        {
          "name": "r",
          "type": "bytes32[]"
        },
        {
          "name": "s",
          "type": "bytes32[]"
        }
      ],
      "name": "fillOrdersUpTo",
      "outputs": [
        {
          "name": "",
          "type": "uint256"
        }
      ],
      "payable": false,
      "stateMutability": "nonpayable",
      "type": "function"
    },
    {
      "constant": false,
      "inputs": [
        {
          "name": "orderAddresses",
          "type": "address[5]"
        },
        {
          "name": "orderValues",
          "type": "uint256[6]"
        },
        {
          "name": "cancelTakerTokenAmount",
          "type": "uint256"
        }
      ],
      "name": "cancelOrder",
      "outputs": [
        {
          "name": "",
          "type": "uint256"
        }
      ],
      "payable": false,
      "stateMutability": "nonpayable",
      "type": "function"
    },
    {
      "constant": true,
      "inputs": [],
      "name": "ZRX_TOKEN_CONTRACT",
      "outputs": [
        {
          "name": "",
          "type": "address"
        }
      ],
      "payable": false,
      "stateMutability": "view",
      "type": "function"
    },
    {
      "constant": false,
      "inputs": [
        {
          "name": "orderAddresses",
          "type": "address[5][]"
        },
        {
          "name": "orderValues",
          "type": "uint256[6][]"
        },
        {
          "name": "fillTakerTokenAmounts",
          "type": "uint256[]"
        },
        {
          "name": "v",
          "type": "uint8[]"
        },
        {
          "name": "r",
          "type": "bytes32[]"
        },
        {
          "name": "s",
          "type": "bytes32[]"
        }
      ],
      "name": "batchFillOrKillOrders",
      "outputs": [],
      "payable": false,
      "stateMutability": "nonpayable",
      "type": "function"
    },
    {
      "constant": false,
      "inputs": [
        {
          "name": "orderAddresses",
          "type": "address[5]"
        },
        {
          "name": "orderValues",
          "type": "uint256[6]"
        },
        {
          "name": "fillTakerTokenAmount",
          "type": "uint256"
        },
        {
          "name": "v",
          "type": "uint8"
        },
        {
          "name": "r",
          "type": "bytes32"
        },
        {
          "name": "s",
          "type": "bytes32"
        }
      ],
      "name": "fillOrKillOrder",
      "outputs": [],
      "payable": false,
      "stateMutability": "nonpayable",
      "type": "function"
    },
    {
      "constant": true,
      "inputs": [
        {
          "name": "orderHash",
          "type": "bytes32"
        }
      ],
      "name": "getUnavailableTakerTokenAmount",
      "outputs": [
        {
          "name": "",
          "type": "uint256"
        }
      ],
      "payable": false,
      "stateMutability": "view",
      "type": "function"
    },
    {
      "constant": true,
      "inputs": [
        {
          "name": "signer",
          "type": "address"
        },
        {
          "name": "hash",
          "type": "bytes32"
        },
        {
          "name": "v",
          "type": "uint8"
        },
        {
          "name": "r",
          "type": "bytes32"
        },
        {
          "name": "s",
          "type": "bytes32"
        }
      ],
      "name": "isValidSignature",
      "outputs": [
        {
          "name": "",
          "type": "bool"
        }
      ],
      "payable": false,
      "stateMutability": "view",
      "type": "function"
    },
    {
      "constant": true,
      "inputs": [
        {
          "name": "numerator",
          "type": "uint256"
        },
        {
          "name": "denominator",
          "type": "uint256"
        },
        {
          "name": "target",
          "type": "uint256"
        }
      ],
      "name": "getPartialAmount",
      "outputs": [
        {
          "name": "",
          "type": "uint256"
        }
      ],
      "payable": false,
      "stateMutability": "view",
      "type": "function"
    },
    {
      "constant": true,
      "inputs": [],
      "name": "TOKEN_TRANSFER_PROXY_CONTRACT",
      "outputs": [
        {
          "name": "",
          "type": "address"
        }
      ],
      "payable": false,
      "stateMutability": "view",
      "type": "function"
    },
    {
      "constant": false,
      "inputs": [
        {
          "name": "orderAddresses",
          "type": "address[5][]"
        },
        {
          "name": "orderValues",
          "type": "uint256[6][]"
        },
        {
          "name": "fillTakerTokenAmounts",
          "type": "uint256[]"
        },
        {
          "name": "shouldThrowOnInsufficientBalanceOrAllowance",
          "type": "bool"
        },
        {
          "name": "v",
          "type": "uint8[]"
        },
        {
          "name": "r",
          "type": "bytes32[]"
        },
        {
          "name": "s",
          "type": "bytes32[]"
        }
      ],
      "name": "batchFillOrders",
      "outputs": [],
      "payable": false,
      "stateMutability": "nonpayable",
      "type": "function"
    },
    {
      "constant": false,
      "inputs": [
        {
          "name": "orderAddresses",
          "type": "address[5][]"
        },
        {
          "name": "orderValues",
          "type": "uint256[6][]"
        },
        {
          "name": "cancelTakerTokenAmounts",
          "type": "uint256[]"
        }
      ],
      "name": "batchCancelOrders",
      "outputs": [],
      "payable": false,
      "stateMutability": "nonpayable",
      "type": "function"
    },
    {
      "constant": false,
      "inputs": [
        {
          "name": "orderAddresses",
          "type": "address[5]"
        },
        {
          "name": "orderValues",
          "type": "uint256[6]"
        },
        {
          "name": "fillTakerTokenAmount",
          "type": "uint256"
        },
        {
          "name": "shouldThrowOnInsufficientBalanceOrAllowance",
          "type": "bool"
        },
        {
          "name": "v",
          "type": "uint8"
        },
        {
          "name": "r",
          "type": "bytes32"
        },
        {
          "name": "s",
          "type": "bytes32"
        }
      ],
      "name": "fillOrder",
      "outputs": [
        {
          "name": "filledTakerTokenAmount",
          "type": "uint256"
        }
      ],
      "payable": false,
      "stateMutability": "nonpayable",
      "type": "function"
    },
    {
      "constant": true,
      "inputs": [
        {
          "name": "orderAddresses",
          "type": "address[5]"
        },
        {
          "name": "orderValues",
          "type": "uint256[6]"
        }
      ],
      "name": "getOrderHash",
      "outputs": [
        {
          "name": "",
          "type": "bytes32"
        }
      ],
      "payable": false,
      "stateMutability": "view",
      "type": "function"
    },
    {
      "constant": true,
      "inputs": [],
      "name": "EXTERNAL_QUERY_GAS_LIMIT",
      "outputs": [
        {
          "name": "",
          "type": "uint16"
        }
      ],
      "payable": false,
      "stateMutability": "view",
      "type": "function"
    },
    {
      "constant": true,
      "inputs": [],
      "name": "VERSION",
      "outputs": [
        {
          "name": "",
          "type": "string"
        }
      ],
      "payable": false,
      "stateMutability": "view",
      "type": "function"
    },
    {
      "inputs": [
        {
          "name": "_zrxToken",
          "type": "address"
        },
        {
          "name": "_tokenTransferProxy",
          "type": "address"
        }
      ],
      "payable": false,
      "stateMutability": "nonpayable",
      "type": "constructor"
    },
    {
      "anonymous": false,
      "inputs": [
        {
          "indexed": true,
          "name": "maker",
          "type": "address"
        },
        {
          "indexed": false,
          "name": "taker",
          "type": "address"
        },
        {
          "indexed": true,
          "name": "feeRecipient",
          "type": "address"
        },
        {
          "indexed": false,
          "name": "makerToken",
          "type": "address"
        },
        {
          "indexed": false,
          "name": "takerToken",
          "type": "address"
        },
        {
          "indexed": false,
          "name": "filledMakerTokenAmount",
          "type": "uint256"
        },
        {
          "indexed": false,
          "name": "filledTakerTokenAmount",
          "type": "uint256"
        },
        {
          "indexed": false,
          "name": "paidMakerFee",
          "type": "uint256"
        },
        {
          "indexed": false,
          "name": "paidTakerFee",
          "type": "uint256"
        },
        {
          "indexed": true,
          "name": "tokens",
          "type": "bytes32"
        },
        {
          "indexed": false,
          "name": "orderHash",
          "type": "bytes32"
        }
      ],
      "name": "LogFill",
      "type": "event"
    },
    {
      "anonymous": false,
      "inputs": [
        {
          "indexed": true,
          "name": "maker",
          "type": "address"
        },
        {
          "indexed": true,
          "name": "feeRecipient",
          "type": "address"
        },
        {
          "indexed": false,
          "name": "makerToken",
          "type": "address"
        },
        {
          "indexed": false,
          "name": "takerToken",
          "type": "address"
        },
        {
          "indexed": false,
          "name": "cancelledMakerTokenAmount",
          "type": "uint256"
        },
        {
          "indexed": false,
          "name": "cancelledTakerTokenAmount",
          "type": "uint256"
        },
        {
          "indexed": true,
          "name": "tokens",
          "type": "bytes32"
        },
        {
          "indexed": false,
          "name": "orderHash",
          "type": "bytes32"
        }
      ],
      "name": "LogCancel",
      "type": "event"
    },
    {
      "anonymous": false,
      "inputs": [
        {
          "indexed": true,
          "name": "errorId",
          "type": "uint8"
        },
        {
          "indexed": true,
          "name": "orderHash",
          "type": "bytes32"
        }
      ],
      "name": "LogError",
      "type": "event"
    }
  ],
  "bytecode": "0x6060604052341561000f57600080fd5b604051604080612c3683398101604052808051906020019091908051906020019091905050816000806101000a81548173ffffffffffffffffffffffffffffffffffffffff021916908373ffffffffffffffffffffffffffffffffffffffff16021790555080600160006101000a81548173ffffffffffffffffffffffffffffffffffffffff021916908373ffffffffffffffffffffffffffffffffffffffff1602179055505050612b70806100c66000396000f3006060604052600436106100fc576000357c0100000000000000000000000000000000000000000000000000000000900463ffffffff16806314df96ee14610101578063288cdc911461014e5780632ac1262214610189578063363349be146101c4578063394c21e7146103be5780633b30ba591461044d5780634f150787146104a2578063741bcc93146106b45780637e9abb50146107555780638163681e1461079057806398024a8b14610814578063add1cbc51461085d578063b7b2c7d6146108b2578063baa0181d14610acf578063bc61394a14610c21578063cfc4d0ec14610ce1578063f06bbf7514610d6f578063ffa1ad7414610da0575b600080fd5b341561010c57600080fd5b6101346004808035906020019091908035906020019091908035906020019091905050610e2e565b604051808215151515815260200191505060405180910390f35b341561015957600080fd5b610173600480803560001916906020019091905050610e7d565b6040518082815260200191505060405180910390f35b341561019457600080fd5b6101ae600480803560001916906020019091905050610e95565b6040518082815260200191505060405180910390f35b34156101cf57600080fd5b6103a860048080359060200190820180359060200190808060200260200160405190810160405280939291908181526020016000905b8282101561024a57848483905060a002016005806020026040519081016040528092919082600560200280828437820191505050505081526020019060010190610205565b5050505050919080359060200190820180359060200190808060200260200160405190810160405280939291908181526020016000905b828210156102c657848483905060c002016006806020026040519081016040528092919082600660200280828437820191505050505081526020019060010190610281565b5050505050919080359060200190919080351515906020019091908035906020019082018035906020019080806020026020016040519081016040528093929190818152602001838360200280828437820191505050505050919080359060200190820180359060200190808060200260200160405190810160405280939291908181526020018383602002808284378201915050505050509190803590602001908201803590602001908080602002602001604051908101604052809392919081815260200183836020028082843782019150505050505091905050610ead565b6040518082815260200191505060405180910390f35b34156103c957600080fd5b6104376004808060a001906005806020026040519081016040528092919082600560200280828437820191505050505091908060c001906006806020026040519081016040528092919082600660200280828437820191505050505091908035906020019091905050611012565b6040518082815260200191505060405180910390f35b341561045857600080fd5b6104606114fa565b604051808273ffffffffffffffffffffffffffffffffffffffff1673ffffffffffffffffffffffffffffffffffffffff16815260200191505060405180910390f35b34156104ad57600080fd5b6106b260048080359060200190820180359060200190808060200260200160405190810160405280939291908181526020016000905b8282101561052857848483905060a0020160058060200260405190810160405280929190826005602002808284378201915050505050815260200190600101906104e3565b5050505050919080359060200190820180359060200190808060200260200160405190810160405280939291908181526020016000905b828210156105a457848483905060c00201600680602002604051908101604052809291908260066020028082843782019150505050508152602001906001019061055f565b5050505050919080359060200190820180359060200190808060200260200160405190810160405280939291908181526020018383602002808284378201915050505050509190803590602001908201803590602001908080602002602001604051908101604052809392919081815260200183836020028082843782019150505050505091908035906020019082018035906020019080806020026020016040519081016040528093929190818152602001838360200280828437820191505050505050919080359060200190820180359060200190808060200260200160405190810160405280939291908181526020018383602002808284378201915050505050509190505061151f565b005b34156106bf57600080fd5b6107536004808060a001906005806020026040519081016040528092919082600560200280828437820191505050505091908060c00190600680602002604051908101604052809291908260066020028082843782019150505050509190803590602001909190803560ff1690602001909190803560001916906020019091908035600019169060200190919050506115dc565b005b341561076057600080fd5b61077a600480803560001916906020019091905050611601565b6040518082815260200191505060405180910390f35b341561079b57600080fd5b6107fa600480803573ffffffffffffffffffffffffffffffffffffffff169060200190919080356000191690602001909190803560ff16906020019091908035600019169060200190919080356000191690602001909190505061164a565b604051808215151515815260200191505060405180910390f35b341561081f57600080fd5b6108476004808035906020019091908035906020019091908035906020019091905050611751565b6040518082815260200191505060405180910390f35b341561086857600080fd5b61087061176f565b604051808273ffffffffffffffffffffffffffffffffffffffff1673ffffffffffffffffffffffffffffffffffffffff16815260200191505060405180910390f35b34156108bd57600080fd5b610acd60048080359060200190820180359060200190808060200260200160405190810160405280939291908181526020016000905b8282101561093857848483905060a0020160058060200260405190810160405280929190826005602002808284378201915050505050815260200190600101906108f3565b5050505050919080359060200190820180359060200190808060200260200160405190810160405280939291908181526020016000905b828210156109b457848483905060c00201600680602002604051908101604052809291908260066020028082843782019150505050508152602001906001019061096f565b505050505091908035906020019082018035906020019080806020026020016040519081016040528093929190818152602001838360200280828437820191505050505050919080351515906020019091908035906020019082018035906020019080806020026020016040519081016040528093929190818152602001838360200280828437820191505050505050919080359060200190820180359060200190808060200260200160405190810160405280939291908181526020018383602002808284378201915050505050509190803590602001908201803590602001908080602002602001604051908101604052809392919081815260200183836020028082843782019150505050505091905050611795565b005b3415610ada57600080fd5b610c1f60048080359060200190820180359060200190808060200260200160405190810160405280939291908181526020016000905b82821015610b5557848483905060a002016005806020026040519081016040528092919082600560200280828437820191505050505081526020019060010190610b10565b5050505050919080359060200190820180359060200190808060200260200160405190810160405280939291908181526020016000905b82821015610bd157848483905060c002016006806020026040519081016040528092919082600660200280828437820191505050505081526020019060010190610b8c565b50505050509190803590602001908201803590602001908080602002602001604051908101604052809392919081815260200183836020028082843782019150505050505091905050611855565b005b3415610c2c57600080fd5b610ccb6004808060a001906005806020026040519081016040528092919082600560200280828437820191505050505091908060c001906006806020026040519081016040528092919082600660200280828437820191505050505091908035906020019091908035151590602001909190803560ff1690602001909190803560001916906020019091908035600019169060200190919050506118c8565b6040518082815260200191505060405180910390f35b3415610cec57600080fd5b610d516004808060a001906005806020026040519081016040528092919082600560200280828437820191505050505091908060c001906006806020026040519081016040528092919082600660200280828437820191505050505091905050612068565b60405180826000191660001916815260200191505060405180910390f35b3415610d7a57600080fd5b610d82612313565b604051808261ffff1661ffff16815260200191505060405180910390f35b3415610dab57600080fd5b610db3612319565b6040518080602001828103825283818151815260200191508051906020019080838360005b83811015610df3578082015181840152602081019050610dd8565b50505050905090810190601f168015610e205780820380516001836020036101000a031916815260200191505b509250505060405180910390f35b60008060008486850991506000821415610e4b5760009250610e74565b610e6a610e5b83620f4240612352565b610e658887612352565b612385565b90506103e8811192505b50509392505050565b60026020528060005260406000206000915090505481565b60036020528060005260406000206000915090505481565b6000806000809150600090505b895181101561100257896000815181101515610ed257fe5b906020019060200201516003600581101515610eea57fe5b602002015173ffffffffffffffffffffffffffffffffffffffff168a82815181101515610f1357fe5b906020019060200201516003600581101515610f2b57fe5b602002015173ffffffffffffffffffffffffffffffffffffffff16141515610f5257600080fd5b610fe682610fe18c84815181101515610f6757fe5b906020019060200201518c85815181101515610f7f57fe5b90602001906020020151610f938d886123a0565b8c8c88815181101515610fa257fe5b906020019060200201518c89815181101515610fba57fe5b906020019060200201518c8a815181101515610fd257fe5b906020019060200201516118c8565b6123b9565b915087821415610ff557611002565b8080600101915050610eba565b8192505050979650505050505050565b600061101c612a78565b6000806101606040519081016040528088600060058110151561103b57fe5b602002015173ffffffffffffffffffffffffffffffffffffffff16815260200188600160058110151561106a57fe5b602002015173ffffffffffffffffffffffffffffffffffffffff16815260200188600260058110151561109957fe5b602002015173ffffffffffffffffffffffffffffffffffffffff1681526020018860036005811015156110c857fe5b602002015173ffffffffffffffffffffffffffffffffffffffff1681526020018860046005811015156110f757fe5b602002015173ffffffffffffffffffffffffffffffffffffffff16815260200187600060068110151561112657fe5b6020020151815260200187600160068110151561113f57fe5b6020020151815260200187600260068110151561115857fe5b6020020151815260200187600360068110151561117157fe5b6020020151815260200187600460068110151561118a57fe5b6020020151815260200161119e8989612068565b6000191681525092503373ffffffffffffffffffffffffffffffffffffffff16836000015173ffffffffffffffffffffffffffffffffffffffff161415156111e557600080fd5b60008360a001511180156111fd575060008360c00151115b80156112095750600085115b151561121457600080fd5b8261012001514210151561127157826101400151600019166000600381111561123957fe5b60ff167f36d86c59e00bd73dc19ba3adfe068e4b64ac7e92be35546adeddf1b956a87e9060405160405180910390a3600093506114f0565b61128c8360c00151611287856101400151611601565b6123a0565b915061129885836123d7565b905060008114156112f25782610140015160001916600160038111156112ba57fe5b60ff167f36d86c59e00bd73dc19ba3adfe068e4b64ac7e92be35546adeddf1b956a87e9060405160405180910390a3600093506114f0565b61131c600360008561014001516000191660001916815260200190815260200160002054826123b9565b60036000856101400151600019166000191681526020019081526020016000208190555082604001518360600151604051808373ffffffffffffffffffffffffffffffffffffffff1673ffffffffffffffffffffffffffffffffffffffff166c010000000000000000000000000281526014018273ffffffffffffffffffffffffffffffffffffffff1673ffffffffffffffffffffffffffffffffffffffff166c0100000000000000000000000002815260140192505050604051809103902060001916836080015173ffffffffffffffffffffffffffffffffffffffff16846000015173ffffffffffffffffffffffffffffffffffffffff167f67d66f160bc93d925d05dae1794c90d2d6d6688b29b84ff069398a9b0458713186604001518760600151611454878a60c001518b60a00151611751565b878a6101400151604051808673ffffffffffffffffffffffffffffffffffffffff1673ffffffffffffffffffffffffffffffffffffffff1681526020018573ffffffffffffffffffffffffffffffffffffffff1673ffffffffffffffffffffffffffffffffffffffff16815260200184815260200183815260200182600019166000191681526020019550505050505060405180910390a48093505b5050509392505050565b6000809054906101000a900473ffffffffffffffffffffffffffffffffffffffff1681565b60008090505b86518110156115d3576115c6878281518110151561153f57fe5b90602001906020020151878381518110151561155757fe5b90602001906020020151878481518110151561156f57fe5b90602001906020020151878581518110151561158757fe5b90602001906020020151878681518110151561159f57fe5b9060200190602002015187878151811015156115b757fe5b906020019060200201516115dc565b8080600101915050611525565b50505050505050565b836115ed87878760008888886118c8565b1415156115f957600080fd5b505050505050565b600061164360026000846000191660001916815260200190815260200160002054600360008560001916600019168152602001908152602001600020546123b9565b9050919050565b600060018560405180807f19457468657265756d205369676e6564204d6573736167653a0a333200000000815250601c0182600019166000191681526020019150506040518091039020858585604051600081526020016040526000604051602001526040518085600019166000191681526020018460ff1660ff16815260200183600019166000191681526020018260001916600019168152602001945050505050602060405160208103908084039060008661646e5a03f1151561170f57600080fd5b50506020604051035173ffffffffffffffffffffffffffffffffffffffff168673ffffffffffffffffffffffffffffffffffffffff1614905095945050505050565b60006117666117608584612352565b84612385565b90509392505050565b600160009054906101000a900473ffffffffffffffffffffffffffffffffffffffff1681565b60008090505b875181101561184b5761183d88828151811015156117b557fe5b9060200190602002015188838151811015156117cd57fe5b9060200190602002015188848151811015156117e557fe5b906020019060200201518888868151811015156117fe57fe5b90602001906020020151888781518110151561181657fe5b90602001906020020151888881518110151561182e57fe5b906020019060200201516118c8565b50808060010191505061179b565b5050505050505050565b60008090505b83518110156118c2576118b4848281518110151561187557fe5b90602001906020020151848381518110151561188d57fe5b9060200190602002015184848151811015156118a557fe5b90602001906020020151611012565b50808060010191505061185b565b50505050565b60006118d2612a78565b600080600080610160604051908101604052808e60006005811015156118f457fe5b602002015173ffffffffffffffffffffffffffffffffffffffff1681526020018e600160058110151561192357fe5b602002015173ffffffffffffffffffffffffffffffffffffffff1681526020018e600260058110151561195257fe5b602002015173ffffffffffffffffffffffffffffffffffffffff1681526020018e600360058110151561198157fe5b602002015173ffffffffffffffffffffffffffffffffffffffff1681526020018e60046005811015156119b057fe5b602002015173ffffffffffffffffffffffffffffffffffffffff1681526020018d60006006811015156119df57fe5b602002015181526020018d60016006811015156119f857fe5b602002015181526020018d6002600681101515611a1157fe5b602002015181526020018d6003600681101515611a2a57fe5b602002015181526020018d6004600681101515611a4357fe5b60200201518152602001611a578f8f612068565b600019168152509450600073ffffffffffffffffffffffffffffffffffffffff16856020015173ffffffffffffffffffffffffffffffffffffffff161480611ace57503373ffffffffffffffffffffffffffffffffffffffff16856020015173ffffffffffffffffffffffffffffffffffffffff16145b1515611ad957600080fd5b60008560a00151118015611af1575060008560c00151115b8015611afd575060008b115b1515611b0857600080fd5b611b1e85600001518661014001518b8b8b61164a565b1515611b2957600080fd5b84610120015142101515611b86578461014001516000191660006003811115611b4e57fe5b60ff167f36d86c59e00bd73dc19ba3adfe068e4b64ac7e92be35546adeddf1b956a87e9060405160405180910390a360009550612058565b611ba18560c00151611b9c876101400151611601565b6123a0565b9350611bad8b856123d7565b95506000861415611c07578461014001516000191660016003811115611bcf57fe5b60ff167f36d86c59e00bd73dc19ba3adfe068e4b64ac7e92be35546adeddf1b956a87e9060405160405180910390a360009550612058565b611c1a868660c001518760a00151610e2e565b15611c6e578461014001516000191660026003811115611c3657fe5b60ff167f36d86c59e00bd73dc19ba3adfe068e4b64ac7e92be35546adeddf1b956a87e9060405160405180910390a360009550612058565b89158015611c835750611c8185876123f0565b155b15611cd65784610140015160001916600380811115611c9e57fe5b60ff167f36d86c59e00bd73dc19ba3adfe068e4b64ac7e92be35546adeddf1b956a87e9060405160405180910390a360009550612058565b611ce9868660c001518760a00151611751565b9250611d15600260008761014001516000191660001916815260200190815260200160002054876123b9565b600260008761014001516000191660001916815260200190815260200160002081905550611d4d856040015186600001513386612740565b1515611d5857600080fd5b611d6c856060015133876000015189612740565b1515611d7757600080fd5b600073ffffffffffffffffffffffffffffffffffffffff16856080015173ffffffffffffffffffffffffffffffffffffffff16141515611e765760008560e001511115611e1457611dd1868660c001518760e00151611751565b9150611e086000809054906101000a900473ffffffffffffffffffffffffffffffffffffffff168660000151876080015185612740565b1515611e1357600080fd5b5b60008561010001511115611e7557611e36868660c00151876101000151611751565b9050611e696000809054906101000a900473ffffffffffffffffffffffffffffffffffffffff1633876080015184612740565b1515611e7457600080fd5b5b5b84604001518560600151604051808373ffffffffffffffffffffffffffffffffffffffff1673ffffffffffffffffffffffffffffffffffffffff166c010000000000000000000000000281526014018273ffffffffffffffffffffffffffffffffffffffff1673ffffffffffffffffffffffffffffffffffffffff166c0100000000000000000000000002815260140192505050604051809103902060001916856080015173ffffffffffffffffffffffffffffffffffffffff16866000015173ffffffffffffffffffffffffffffffffffffffff167f0d0b9391970d9a25552f37d436d2aae2925e2bfe1b2a923754bada030c498cb33389604001518a60600151898d8a8a8f6101400151604051808973ffffffffffffffffffffffffffffffffffffffff1673ffffffffffffffffffffffffffffffffffffffff1681526020018873ffffffffffffffffffffffffffffffffffffffff1673ffffffffffffffffffffffffffffffffffffffff1681526020018773ffffffffffffffffffffffffffffffffffffffff1673ffffffffffffffffffffffffffffffffffffffff16815260200186815260200185815260200184815260200183815260200182600019166000191681526020019850505050505050505060405180910390a48595505b5050505050979650505050505050565b60003083600060058110151561207a57fe5b602002015184600160058110151561208e57fe5b60200201518560026005811015156120a257fe5b60200201518660036005811015156120b657fe5b60200201518760046005811015156120ca57fe5b60200201518760006006811015156120de57fe5b60200201518860016006811015156120f257fe5b602002015189600260068110151561210657fe5b60200201518a600360068110151561211a57fe5b60200201518b600460068110151561212e57fe5b60200201518c600560068110151561214257fe5b6020020151604051808d73ffffffffffffffffffffffffffffffffffffffff1673ffffffffffffffffffffffffffffffffffffffff166c010000000000000000000000000281526014018c73ffffffffffffffffffffffffffffffffffffffff1673ffffffffffffffffffffffffffffffffffffffff166c010000000000000000000000000281526014018b73ffffffffffffffffffffffffffffffffffffffff1673ffffffffffffffffffffffffffffffffffffffff166c010000000000000000000000000281526014018a73ffffffffffffffffffffffffffffffffffffffff1673ffffffffffffffffffffffffffffffffffffffff166c010000000000000000000000000281526014018973ffffffffffffffffffffffffffffffffffffffff1673ffffffffffffffffffffffffffffffffffffffff166c010000000000000000000000000281526014018873ffffffffffffffffffffffffffffffffffffffff1673ffffffffffffffffffffffffffffffffffffffff166c010000000000000000000000000281526014018781526020018681526020018581526020018481526020018381526020018281526020019c505050505050505050505050506040518091039020905092915050565b61138781565b6040805190810160405280600581526020017f312e302e3000000000000000000000000000000000000000000000000000000081525081565b60008082840290506000841480612373575082848281151561237057fe5b04145b151561237b57fe5b8091505092915050565b600080828481151561239357fe5b0490508091505092915050565b60008282111515156123ae57fe5b818303905092915050565b60008082840190508381101515156123cd57fe5b8091505092915050565b60008183106123e657816123e8565b825b905092915050565b60008060008060008060008060003397506124148a8c60c001518d60a00151611751565b9650600073ffffffffffffffffffffffffffffffffffffffff168b6080015173ffffffffffffffffffffffffffffffffffffffff161415156126c1576000809054906101000a900473ffffffffffffffffffffffffffffffffffffffff1673ffffffffffffffffffffffffffffffffffffffff168b6040015173ffffffffffffffffffffffffffffffffffffffff161495506000809054906101000a900473ffffffffffffffffffffffffffffffffffffffff1673ffffffffffffffffffffffffffffffffffffffff168b6060015173ffffffffffffffffffffffffffffffffffffffff1614945061250f8a8c60c001518d60e00151611751565b93506125258a8c60c001518d6101000151611751565b925085612532578361253d565b61253c87856123b9565b5b91508461254a5782612555565b6125548a846123b9565b5b9050816125876000809054906101000a900473ffffffffffffffffffffffffffffffffffffffff168d6000015161289c565b10806125c05750816125be6000809054906101000a900473ffffffffffffffffffffffffffffffffffffffff168d6000015161295f565b105b806125f45750806125f26000809054906101000a900473ffffffffffffffffffffffffffffffffffffffff168a61289c565b105b806126285750806126266000809054906101000a900473ffffffffffffffffffffffffffffffffffffffff168a61295f565b105b156126365760009850612732565b8515801561266f5750866126528c604001518d6000015161289c565b108061266e57508661266c8c604001518d6000015161295f565b105b5b1561267d5760009850612732565b841580156126ae5750896126958c606001518a61289c565b10806126ad5750896126ab8c606001518a61295f565b105b5b156126bc5760009850612732565b61272d565b866126d48c604001518d6000015161289c565b10806126f05750866126ee8c604001518d6000015161295f565b105b806127075750896127058c606001518a61289c565b105b8061271e57508961271c8c606001518a61295f565b105b1561272c5760009850612732565b5b600198505b505050505050505092915050565b6000600160009054906101000a900473ffffffffffffffffffffffffffffffffffffffff1673ffffffffffffffffffffffffffffffffffffffff166315dacbea868686866000604051602001526040518563ffffffff167c0100000000000000000000000000000000000000000000000000000000028152600401808573ffffffffffffffffffffffffffffffffffffffff1673ffffffffffffffffffffffffffffffffffffffff1681526020018473ffffffffffffffffffffffffffffffffffffffff1673ffffffffffffffffffffffffffffffffffffffff1681526020018373ffffffffffffffffffffffffffffffffffffffff1673ffffffffffffffffffffffffffffffffffffffff168152602001828152602001945050505050602060405180830381600087803b151561287757600080fd5b6102c65a03f1151561288857600080fd5b505050604051805190509050949350505050565b60008273ffffffffffffffffffffffffffffffffffffffff166370a0823161138761ffff16846040518363ffffffff167c0100000000000000000000000000000000000000000000000000000000028152600401808273ffffffffffffffffffffffffffffffffffffffff1673ffffffffffffffffffffffffffffffffffffffff168152602001915050602060405180830381600088803b151561293f57600080fd5b87f1151561294c57600080fd5b5050505060405180519050905092915050565b60008273ffffffffffffffffffffffffffffffffffffffff1663dd62ed3e61138761ffff1684600160009054906101000a900473ffffffffffffffffffffffffffffffffffffffff166040518463ffffffff167c0100000000000000000000000000000000000000000000000000000000028152600401808373ffffffffffffffffffffffffffffffffffffffff1673ffffffffffffffffffffffffffffffffffffffff1681526020018273ffffffffffffffffffffffffffffffffffffffff1673ffffffffffffffffffffffffffffffffffffffff16815260200192505050602060405180830381600088803b1515612a5857600080fd5b87f11515612a6557600080fd5b5050505060405180519050905092915050565b61016060405190810160405280600073ffffffffffffffffffffffffffffffffffffffff168152602001600073ffffffffffffffffffffffffffffffffffffffff168152602001600073ffffffffffffffffffffffffffffffffffffffff168152602001600073ffffffffffffffffffffffffffffffffffffffff168152602001600073ffffffffffffffffffffffffffffffffffffffff16815260200160008152602001600081526020016000815260200160008152602001600081526020016000801916815250905600a165627a7a72305820d28e50af99ba282b8c3e517296bb282f00833778c1caafaea4b8189b65dee66e0029",
  "source": "pragma solidity ^0.4.18;\n\n\ncontract Token {\n\n    /// @return total amount of tokens\n    function totalSupply() constant returns (uint supply) {}\n\n    /// @param _owner The address from which the balance will be retrieved\n    /// @return The balance\n    function balanceOf(address _owner) constant returns (uint balance) {}\n\n    /// @notice send `_value` token to `_to` from `msg.sender`\n    /// @param _to The address of the recipient\n    /// @param _value The amount of token to be transferred\n    /// @return Whether the transfer was successful or not\n    function transfer(address _to, uint _value) returns (bool success) {}\n\n    /// @notice send `_value` token to `_to` from `_from` on the condition it is approved by `_from`\n    /// @param _from The address of the sender\n    /// @param _to The address of the recipient\n    /// @param _value The amount of token to be transferred\n    /// @return Whether the transfer was successful or not\n    function transferFrom(address _from, address _to, uint _value) returns (bool success) {}\n\n    /// @notice `msg.sender` approves `_addr` to spend `_value` tokens\n    /// @param _spender The address of the account able to transfer the tokens\n    /// @param _value The amount of wei to be approved for transfer\n    /// @return Whether the approval was successful or not\n    function approve(address _spender, uint _value) returns (bool success) {}\n\n    /// @param _owner The address of the account owning tokens\n    /// @param _spender The address of the account able to transfer the tokens\n    /// @return Amount of remaining tokens allowed to spent\n    function allowance(address _owner, address _spender) constant returns (uint remaining) {}\n\n    event Transfer(address indexed _from, address indexed _to, uint _value);\n    event Approval(address indexed _owner, address indexed _spender, uint _value);\n}\n\n/*\n * Ownable\n *\n * Base contract with an owner.\n * Provides onlyOwner modifier, which prevents function from running if it is called by anyone other than the owner.\n */\n\ncontract Ownable {\n    address public owner;\n\n    function Ownable() {\n        owner = msg.sender;\n    }\n\n    modifier onlyOwner() {\n        require(msg.sender == owner);\n        _;\n    }\n\n    function transferOwnership(address newOwner) onlyOwner {\n        if (newOwner != address(0)) {\n            owner = newOwner;\n        }\n    }\n}\n\n/// @title TokenTransferProxy - Transfers tokens on behalf of contracts that have been approved via decentralized governance.\n/// @author Amir Bandeali - <amir@0xProject.com>, Will Warren - <will@0xProject.com>\ncontract TokenTransferProxy is Ownable {\n\n    /// @dev Only authorized addresses can invoke functions with this modifier.\n    modifier onlyAuthorized {\n        require(authorized[msg.sender]);\n        _;\n    }\n\n    modifier targetAuthorized(address target) {\n        require(authorized[target]);\n        _;\n    }\n\n    modifier targetNotAuthorized(address target) {\n        require(!authorized[target]);\n        _;\n    }\n\n    mapping (address => bool) public authorized;\n    address[] public authorities;\n\n    event LogAuthorizedAddressAdded(address indexed target, address indexed caller);\n    event LogAuthorizedAddressRemoved(address indexed target, address indexed caller);\n\n    /*\n     * Public functions\n     */\n\n    /// @dev Authorizes an address.\n    /// @param target Address to authorize.\n    function addAuthorizedAddress(address target)\n        public\n        onlyOwner\n        targetNotAuthorized(target)\n    {\n        authorized[target] = true;\n        authorities.push(target);\n        LogAuthorizedAddressAdded(target, msg.sender);\n    }\n\n    /// @dev Removes authorizion of an address.\n    /// @param target Address to remove authorization from.\n    function removeAuthorizedAddress(address target)\n        public\n        onlyOwner\n        targetAuthorized(target)\n    {\n        delete authorized[target];\n        for (uint i = 0; i < authorities.length; i++) {\n            if (authorities[i] == target) {\n                authorities[i] = authorities[authorities.length - 1];\n                authorities.length -= 1;\n                break;\n            }\n        }\n        LogAuthorizedAddressRemoved(target, msg.sender);\n    }\n\n    /// @dev Calls into ERC20 Token contract, invoking transferFrom.\n    /// @param token Address of token to transfer.\n    /// @param from Address to transfer token from.\n    /// @param to Address to transfer token to.\n    /// @param value Amount of token to transfer.\n    /// @return Success of transfer.\n    function transferFrom(\n        address token,\n        address from,\n        address to,\n        uint value)\n        public\n        onlyAuthorized\n        returns (bool)\n    {\n        return Token(token).transferFrom(from, to, value);\n    }\n\n    /*\n     * Public constant functions\n     */\n\n    /// @dev Gets all authorized addresses.\n    /// @return Array of authorized addresses.\n    function getAuthorizedAddresses()\n        public\n        constant\n        returns (address[])\n    {\n        return authorities;\n    }\n}\n\n\ncontract SafeMath {\n    function safeMul(uint a, uint b) internal constant returns (uint256) {\n        uint c = a * b;\n        assert(a == 0 || c / a == b);\n        return c;\n    }\n\n    function safeDiv(uint a, uint b) internal constant returns (uint256) {\n        uint c = a / b;\n        return c;\n    }\n\n    function safeSub(uint a, uint b) internal constant returns (uint256) {\n        assert(b <= a);\n        return a - b;\n    }\n\n    function safeAdd(uint a, uint b) internal constant returns (uint256) {\n        uint c = a + b;\n        assert(c >= a);\n        return c;\n    }\n\n    function max64(uint64 a, uint64 b) internal constant returns (uint64) {\n        return a >= b ? a : b;\n    }\n\n    function min64(uint64 a, uint64 b) internal constant returns (uint64) {\n        return a < b ? a : b;\n    }\n\n    function max256(uint256 a, uint256 b) internal constant returns (uint256) {\n        return a >= b ? a : b;\n    }\n\n    function min256(uint256 a, uint256 b) internal constant returns (uint256) {\n        return a < b ? a : b;\n    }\n}\n\n/// @title Exchange - Facilitates exchange of ERC20 tokens.\n/// @author Amir Bandeali - <amir@0xProject.com>, Will Warren - <will@0xProject.com>\ncontract Exchange is SafeMath {\n\n    // Error Codes\n    enum Errors {\n        ORDER_EXPIRED,                    // Order has already expired\n        ORDER_FULLY_FILLED_OR_CANCELLED,  // Order has already been fully filled or cancelled\n        ROUNDING_ERROR_TOO_LARGE,         // Rounding error too large\n        INSUFFICIENT_BALANCE_OR_ALLOWANCE // Insufficient balance or allowance for token transfer\n    }\n\n    string constant public VERSION = \"1.0.0\";\n    uint16 constant public EXTERNAL_QUERY_GAS_LIMIT = 4999;    // Changes to state require at least 5000 gas\n\n    address public ZRX_TOKEN_CONTRACT;\n    address public TOKEN_TRANSFER_PROXY_CONTRACT;\n\n    // Mappings of orderHash => amounts of takerTokenAmount filled or cancelled.\n    mapping (bytes32 => uint) public filled;\n    mapping (bytes32 => uint) public cancelled;\n\n    event LogFill(\n        address indexed maker,\n        address taker,\n        address indexed feeRecipient,\n        address makerToken,\n        address takerToken,\n        uint filledMakerTokenAmount,\n        uint filledTakerTokenAmount,\n        uint paidMakerFee,\n        uint paidTakerFee,\n        bytes32 indexed tokens, // keccak256(makerToken, takerToken), allows subscribing to a token pair\n        bytes32 orderHash\n    );\n\n    event LogCancel(\n        address indexed maker,\n        address indexed feeRecipient,\n        address makerToken,\n        address takerToken,\n        uint cancelledMakerTokenAmount,\n        uint cancelledTakerTokenAmount,\n        bytes32 indexed tokens,\n        bytes32 orderHash\n    );\n\n    event LogError(uint8 indexed errorId, bytes32 indexed orderHash);\n\n    struct Order {\n        address maker;\n        address taker;\n        address makerToken;\n        address takerToken;\n        address feeRecipient;\n        uint makerTokenAmount;\n        uint takerTokenAmount;\n        uint makerFee;\n        uint takerFee;\n        uint expirationTimestampInSec;\n        bytes32 orderHash;\n    }\n\n    function Exchange(address _zrxToken, address _tokenTransferProxy) { //~address of _zrxToken and _tokenTransferProxy contracts\n        ZRX_TOKEN_CONTRACT = _zrxToken;\n        TOKEN_TRANSFER_PROXY_CONTRACT = _tokenTransferProxy;\n    }\n\n    /*\n    * Core exchange functions\n    */\n\n    /// @dev Fills the input order.\n    /// @param orderAddresses Array of order's maker, taker, makerToken, takerToken, and feeRecipient.\n    /// @param orderValues Array of order's makerTokenAmount, takerTokenAmount, makerFee, takerFee, expirationTimestampInSec, and salt.\n    /// @param fillTakerTokenAmount Desired amount of takerToken to fill.\n    /// @param shouldThrowOnInsufficientBalanceOrAllowance Test if transfer will fail before attempting.\n    /// @param v ECDSA signature parameter v.\n    /// @param r ECDSA signature parameters r.\n    /// @param s ECDSA signature parameters s.\n    /// @return Total amount of takerToken filled in trade.\n    function fillOrder(\n          address[5] orderAddresses,\n          uint[6] orderValues,\n          uint fillTakerTokenAmount,\n          bool shouldThrowOnInsufficientBalanceOrAllowance,\n          uint8 v,\n          bytes32 r,\n          bytes32 s)\n          public\n          returns (uint filledTakerTokenAmount)\n    {\n        Order memory order = Order({\n            maker: orderAddresses[0],\n            taker: orderAddresses[1],\n            makerToken: orderAddresses[2],\n            takerToken: orderAddresses[3],\n            feeRecipient: orderAddresses[4],\n            makerTokenAmount: orderValues[0],\n            takerTokenAmount: orderValues[1],\n            makerFee: orderValues[2],\n            takerFee: orderValues[3],\n            expirationTimestampInSec: orderValues[4],\n            orderHash: getOrderHash(orderAddresses, orderValues)\n        });\n\n        require(order.taker == address(0) || order.taker == msg.sender);\n        require(order.makerTokenAmount > 0 && order.takerTokenAmount > 0 && fillTakerTokenAmount > 0);\n        require(isValidSignature(\n            order.maker,\n            order.orderHash,\n            v,\n            r,\n            s\n        ));\n\n        if (block.timestamp >= order.expirationTimestampInSec) {\n            LogError(uint8(Errors.ORDER_EXPIRED), order.orderHash);\n            return 0;\n        }\n\n        uint remainingTakerTokenAmount = safeSub(order.takerTokenAmount, getUnavailableTakerTokenAmount(order.orderHash));\n        filledTakerTokenAmount = min256(fillTakerTokenAmount, remainingTakerTokenAmount);\n        if (filledTakerTokenAmount == 0) {\n            LogError(uint8(Errors.ORDER_FULLY_FILLED_OR_CANCELLED), order.orderHash);\n            return 0;\n        }\n\n        if (isRoundingError(filledTakerTokenAmount, order.takerTokenAmount, order.makerTokenAmount)) {\n            LogError(uint8(Errors.ROUNDING_ERROR_TOO_LARGE), order.orderHash);\n            return 0;\n        }\n\n        if (!shouldThrowOnInsufficientBalanceOrAllowance && !isTransferable(order, filledTakerTokenAmount)) {\n            LogError(uint8(Errors.INSUFFICIENT_BALANCE_OR_ALLOWANCE), order.orderHash);\n            return 0;\n        }\n\n        uint filledMakerTokenAmount = getPartialAmount(filledTakerTokenAmount, order.takerTokenAmount, order.makerTokenAmount);\n        uint paidMakerFee;\n        uint paidTakerFee;\n        filled[order.orderHash] = safeAdd(filled[order.orderHash], filledTakerTokenAmount);\n        require(transferViaTokenTransferProxy(\n            order.makerToken,\n            order.maker,\n            msg.sender,\n            filledMakerTokenAmount\n        ));\n        require(transferViaTokenTransferProxy(\n            order.takerToken,\n            msg.sender,\n            order.maker,\n            filledTakerTokenAmount\n        ));\n        if (order.feeRecipient != address(0)) {\n            if (order.makerFee > 0) {\n                paidMakerFee = getPartialAmount(filledTakerTokenAmount, order.takerTokenAmount, order.makerFee);\n                require(transferViaTokenTransferProxy(\n                    ZRX_TOKEN_CONTRACT,\n                    order.maker,\n                    order.feeRecipient,\n                    paidMakerFee\n                ));\n            }\n            if (order.takerFee > 0) {\n                paidTakerFee = getPartialAmount(filledTakerTokenAmount, order.takerTokenAmount, order.takerFee);\n                require(transferViaTokenTransferProxy(\n                    ZRX_TOKEN_CONTRACT,\n                    msg.sender,\n                    order.feeRecipient,\n                    paidTakerFee\n                ));\n            }\n        }\n\n        LogFill(\n            order.maker,\n            msg.sender,\n            order.feeRecipient,\n            order.makerToken,\n            order.takerToken,\n            filledMakerTokenAmount,\n            filledTakerTokenAmount,\n            paidMakerFee,\n            paidTakerFee,\n            keccak256(order.makerToken, order.takerToken),\n            order.orderHash\n        );\n        return filledTakerTokenAmount;\n    }\n\n    /// @dev Cancels the input order.\n    /// @param orderAddresses Array of order's maker, taker, makerToken, takerToken, and feeRecipient.\n    /// @param orderValues Array of order's makerTokenAmount, takerTokenAmount, makerFee, takerFee, expirationTimestampInSec, and salt.\n    /// @param cancelTakerTokenAmount Desired amount of takerToken to cancel in order.\n    /// @return Amount of takerToken cancelled.\n    function cancelOrder(\n        address[5] orderAddresses,\n        uint[6] orderValues,\n        uint cancelTakerTokenAmount)\n        public\n        returns (uint)\n    {\n        Order memory order = Order({\n            maker: orderAddresses[0],\n            taker: orderAddresses[1],\n            makerToken: orderAddresses[2],\n            takerToken: orderAddresses[3],\n            feeRecipient: orderAddresses[4],\n            makerTokenAmount: orderValues[0],\n            takerTokenAmount: orderValues[1],\n            makerFee: orderValues[2],\n            takerFee: orderValues[3],\n            expirationTimestampInSec: orderValues[4],\n            orderHash: getOrderHash(orderAddresses, orderValues)\n        });\n\n        require(order.maker == msg.sender);\n        require(order.makerTokenAmount > 0 && order.takerTokenAmount > 0 && cancelTakerTokenAmount > 0);\n\n        if (block.timestamp >= order.expirationTimestampInSec) {\n            LogError(uint8(Errors.ORDER_EXPIRED), order.orderHash);\n            return 0;\n        }\n\n        uint remainingTakerTokenAmount = safeSub(order.takerTokenAmount, getUnavailableTakerTokenAmount(order.orderHash));\n        uint cancelledTakerTokenAmount = min256(cancelTakerTokenAmount, remainingTakerTokenAmount);\n        if (cancelledTakerTokenAmount == 0) {\n            LogError(uint8(Errors.ORDER_FULLY_FILLED_OR_CANCELLED), order.orderHash);\n            return 0;\n        }\n\n        cancelled[order.orderHash] = safeAdd(cancelled[order.orderHash], cancelledTakerTokenAmount);\n\n        LogCancel(\n            order.maker,\n            order.feeRecipient,\n            order.makerToken,\n            order.takerToken,\n            getPartialAmount(cancelledTakerTokenAmount, order.takerTokenAmount, order.makerTokenAmount),\n            cancelledTakerTokenAmount,\n            keccak256(order.makerToken, order.takerToken),\n            order.orderHash\n        );\n        return cancelledTakerTokenAmount;\n    }\n\n    /*\n    * Wrapper functions\n    */\n\n    /// @dev Fills an order with specified parameters and ECDSA signature, throws if specified amount not filled entirely.\n    /// @param orderAddresses Array of order's maker, taker, makerToken, takerToken, and feeRecipient.\n    /// @param orderValues Array of order's makerTokenAmount, takerTokenAmount, makerFee, takerFee, expirationTimestampInSec, and salt.\n    /// @param fillTakerTokenAmount Desired amount of takerToken to fill.\n    /// @param v ECDSA signature parameter v.\n    /// @param r ECDSA signature parameters r.\n    /// @param s ECDSA signature parameters s.\n    function fillOrKillOrder(\n        address[5] orderAddresses,\n        uint[6] orderValues,\n        uint fillTakerTokenAmount,\n        uint8 v,\n        bytes32 r,\n        bytes32 s)\n        public\n    {\n        require(fillOrder(\n            orderAddresses,\n            orderValues,\n            fillTakerTokenAmount,\n            false,\n            v,\n            r,\n            s\n        ) == fillTakerTokenAmount);\n    }\n\n    /// @dev Synchronously executes multiple fill orders in a single transaction.\n    /// @param orderAddresses Array of address arrays containing individual order addresses.\n    /// @param orderValues Array of uint arrays containing individual order values.\n    /// @param fillTakerTokenAmounts Array of desired amounts of takerToken to fill in orders.\n    /// @param shouldThrowOnInsufficientBalanceOrAllowance Test if transfers will fail before attempting.\n    /// @param v Array ECDSA signature v parameters.\n    /// @param r Array of ECDSA signature r parameters.\n    /// @param s Array of ECDSA signature s parameters.\n    function batchFillOrders(\n        address[5][] orderAddresses,\n        uint[6][] orderValues,\n        uint[] fillTakerTokenAmounts,\n        bool shouldThrowOnInsufficientBalanceOrAllowance,\n        uint8[] v,\n        bytes32[] r,\n        bytes32[] s)\n        public\n    {\n        for (uint i = 0; i < orderAddresses.length; i++) {\n            fillOrder(\n                orderAddresses[i],\n                orderValues[i],\n                fillTakerTokenAmounts[i],\n                shouldThrowOnInsufficientBalanceOrAllowance,\n                v[i],\n                r[i],\n                s[i]\n            );\n        }\n    }\n\n    /// @dev Synchronously executes multiple fillOrKill orders in a single transaction.\n    /// @param orderAddresses Array of address arrays containing individual order addresses.\n    /// @param orderValues Array of uint arrays containing individual order values.\n    /// @param fillTakerTokenAmounts Array of desired amounts of takerToken to fill in orders.\n    /// @param v Array ECDSA signature v parameters.\n    /// @param r Array of ECDSA signature r parameters.\n    /// @param s Array of ECDSA signature s parameters.\n    function batchFillOrKillOrders(\n        address[5][] orderAddresses,\n        uint[6][] orderValues,\n        uint[] fillTakerTokenAmounts,\n        uint8[] v,\n        bytes32[] r,\n        bytes32[] s)\n        public\n    {\n        for (uint i = 0; i < orderAddresses.length; i++) {\n            fillOrKillOrder(\n                orderAddresses[i],\n                orderValues[i],\n                fillTakerTokenAmounts[i],\n                v[i],\n                r[i],\n                s[i]\n            );\n        }\n    }\n\n    /// @dev Synchronously executes multiple fill orders in a single transaction until total fillTakerTokenAmount filled.\n    /// @param orderAddresses Array of address arrays containing individual order addresses.\n    /// @param orderValues Array of uint arrays containing individual order values.\n    /// @param fillTakerTokenAmount Desired total amount of takerToken to fill in orders.\n    /// @param shouldThrowOnInsufficientBalanceOrAllowance Test if transfers will fail before attempting.\n    /// @param v Array ECDSA signature v parameters.\n    /// @param r Array of ECDSA signature r parameters.\n    /// @param s Array of ECDSA signature s parameters.\n    /// @return Total amount of fillTakerTokenAmount filled in orders.\n    function fillOrdersUpTo(\n        address[5][] orderAddresses,\n        uint[6][] orderValues,\n        uint fillTakerTokenAmount,\n        bool shouldThrowOnInsufficientBalanceOrAllowance,\n        uint8[] v,\n        bytes32[] r,\n        bytes32[] s)\n        public\n        returns (uint)\n    {\n        uint filledTakerTokenAmount = 0;\n        for (uint i = 0; i < orderAddresses.length; i++) {\n            require(orderAddresses[i][3] == orderAddresses[0][3]); // takerToken must be the same for each order\n            filledTakerTokenAmount = safeAdd(filledTakerTokenAmount, fillOrder(\n                orderAddresses[i],\n                orderValues[i],\n                safeSub(fillTakerTokenAmount, filledTakerTokenAmount),\n                shouldThrowOnInsufficientBalanceOrAllowance,\n                v[i],\n                r[i],\n                s[i]\n            ));\n            if (filledTakerTokenAmount == fillTakerTokenAmount) break;\n        }\n        return filledTakerTokenAmount;\n    }\n\n    /// @dev Synchronously cancels multiple orders in a single transaction.\n    /// @param orderAddresses Array of address arrays containing individual order addresses.\n    /// @param orderValues Array of uint arrays containing individual order values.\n    /// @param cancelTakerTokenAmounts Array of desired amounts of takerToken to cancel in orders.\n    function batchCancelOrders(\n        address[5][] orderAddresses,\n        uint[6][] orderValues,\n        uint[] cancelTakerTokenAmounts)\n        public\n    {\n        for (uint i = 0; i < orderAddresses.length; i++) {\n            cancelOrder(\n                orderAddresses[i],\n                orderValues[i],\n                cancelTakerTokenAmounts[i]\n            );\n        }\n    }\n\n    /*\n    * Constant public functions\n    */\n\n    /// @dev Calculates Keccak-256 hash of order with specified parameters.\n    /// @param orderAddresses Array of order's maker, taker, makerToken, takerToken, and feeRecipient.\n    /// @param orderValues Array of order's makerTokenAmount, takerTokenAmount, makerFee, takerFee, expirationTimestampInSec, and salt.\n    /// @return Keccak-256 hash of order.\n    function getOrderHash(address[5] orderAddresses, uint[6] orderValues)\n        public\n        constant\n        returns (bytes32)\n    {\n        return keccak256(\n            address(this),\n            orderAddresses[0], // maker\n            orderAddresses[1], // taker\n            orderAddresses[2], // makerToken\n            orderAddresses[3], // takerToken\n            orderAddresses[4], // feeRecipient\n            orderValues[0],    // makerTokenAmount\n            orderValues[1],    // takerTokenAmount\n            orderValues[2],    // makerFee\n            orderValues[3],    // takerFee\n            orderValues[4],    // expirationTimestampInSec\n            orderValues[5]     // salt\n        );\n    }\n\n    /// @dev Verifies that an order signature is valid.\n    /// @param signer address of signer.\n    /// @param hash Signed Keccak-256 hash.\n    /// @param v ECDSA signature parameter v.\n    /// @param r ECDSA signature parameters r.\n    /// @param s ECDSA signature parameters s.\n    /// @return Validity of order signature.\n    function isValidSignature(\n        address signer,\n        bytes32 hash,\n        uint8 v,\n        bytes32 r,\n        bytes32 s)\n        public\n        constant\n        returns (bool)\n    {\n        return signer == ecrecover(\n            keccak256(\"\\x19Ethereum Signed Message:\\n32\", hash),\n            v,\n            r,\n            s\n        );\n    }\n\n    /// @dev Checks if rounding error > 0.1%.\n    /// @param numerator Numerator.\n    /// @param denominator Denominator.\n    /// @param target Value to multiply with numerator/denominator.\n    /// @return Rounding error is present.\n    function isRoundingError(uint numerator, uint denominator, uint target)\n        public\n        constant\n        returns (bool)\n    {\n        uint remainder = mulmod(target, numerator, denominator);\n        if (remainder == 0) return false; // No rounding error.\n\n        uint errPercentageTimes1000000 = safeDiv(\n            safeMul(remainder, 1000000),\n            safeMul(numerator, target)\n        );\n        return errPercentageTimes1000000 > 1000;\n    }\n\n    /// @dev Calculates partial value given a numerator and denominator.\n    /// @param numerator Numerator.\n    /// @param denominator Denominator.\n    /// @param target Value to calculate partial of.\n    /// @return Partial value of target.\n    function getPartialAmount(uint numerator, uint denominator, uint target)\n        public\n        constant\n        returns (uint)\n    {\n        return safeDiv(safeMul(numerator, target), denominator);\n    }\n\n    /// @dev Calculates the sum of values already filled and cancelled for a given order.\n    /// @param orderHash The Keccak-256 hash of the given order.\n    /// @return Sum of values already filled and cancelled.\n    function getUnavailableTakerTokenAmount(bytes32 orderHash)\n        public\n        constant\n        returns (uint)\n    {\n        return safeAdd(filled[orderHash], cancelled[orderHash]);\n    }\n\n\n    /*\n    * Internal functions\n    */\n\n    /// @dev Transfers a token using TokenTransferProxy transferFrom function.\n    /// @param token Address of token to transferFrom.\n    /// @param from Address transfering token.\n    /// @param to Address receiving token.\n    /// @param value Amount of token to transfer.\n    /// @return Success of token transfer.\n    function transferViaTokenTransferProxy(\n        address token,\n        address from,\n        address to,\n        uint value)\n        internal\n        returns (bool)\n    {\n        return TokenTransferProxy(TOKEN_TRANSFER_PROXY_CONTRACT).transferFrom(token, from, to, value);\n    }\n\n    /// @dev Checks if any order transfers will fail.\n    /// @param order Order struct of params that will be checked.\n    /// @param fillTakerTokenAmount Desired amount of takerToken to fill.\n    /// @return Predicted result of transfers.\n    function isTransferable(Order order, uint fillTakerTokenAmount)\n        internal\n        constant  // The called token contracts may attempt to change state, but will not be able to due to gas limits on getBalance and getAllowance.\n        returns (bool)\n    {\n        address taker = msg.sender;\n        uint fillMakerTokenAmount = getPartialAmount(fillTakerTokenAmount, order.takerTokenAmount, order.makerTokenAmount);\n\n        if (order.feeRecipient != address(0)) {\n            bool isMakerTokenZRX = order.makerToken == ZRX_TOKEN_CONTRACT;\n            bool isTakerTokenZRX = order.takerToken == ZRX_TOKEN_CONTRACT;\n            uint paidMakerFee = getPartialAmount(fillTakerTokenAmount, order.takerTokenAmount, order.makerFee);\n            uint paidTakerFee = getPartialAmount(fillTakerTokenAmount, order.takerTokenAmount, order.takerFee);\n            uint requiredMakerZRX = isMakerTokenZRX ? safeAdd(fillMakerTokenAmount, paidMakerFee) : paidMakerFee;\n            uint requiredTakerZRX = isTakerTokenZRX ? safeAdd(fillTakerTokenAmount, paidTakerFee) : paidTakerFee;\n\n            if (   getBalance(ZRX_TOKEN_CONTRACT, order.maker) < requiredMakerZRX\n                || getAllowance(ZRX_TOKEN_CONTRACT, order.maker) < requiredMakerZRX\n                || getBalance(ZRX_TOKEN_CONTRACT, taker) < requiredTakerZRX\n                || getAllowance(ZRX_TOKEN_CONTRACT, taker) < requiredTakerZRX\n            ) return false;\n\n            if (!isMakerTokenZRX && (   getBalance(order.makerToken, order.maker) < fillMakerTokenAmount // Don't double check makerToken if ZRX\n                                     || getAllowance(order.makerToken, order.maker) < fillMakerTokenAmount)\n            ) return false;\n            if (!isTakerTokenZRX && (   getBalance(order.takerToken, taker) < fillTakerTokenAmount // Don't double check takerToken if ZRX\n                                     || getAllowance(order.takerToken, taker) < fillTakerTokenAmount)\n            ) return false;\n        } else if (   getBalance(order.makerToken, order.maker) < fillMakerTokenAmount\n                   || getAllowance(order.makerToken, order.maker) < fillMakerTokenAmount\n                   || getBalance(order.takerToken, taker) < fillTakerTokenAmount\n                   || getAllowance(order.takerToken, taker) < fillTakerTokenAmount\n        ) return false;\n\n        return true;\n    }\n\n    /// @dev Get token balance of an address.\n    /// @param token Address of token.\n    /// @param owner Address of owner.\n    /// @return Token balance of owner.\n    function getBalance(address token, address owner)\n        internal\n        constant  // The called token contract may attempt to change state, but will not be able to due to an added gas limit.\n        returns (uint)\n    {\n        return Token(token).balanceOf.gas(EXTERNAL_QUERY_GAS_LIMIT)(owner); // Limit gas to prevent reentrancy\n    }\n\n    /// @dev Get allowance of token given to TokenTransferProxy by an address.\n    /// @param token Address of token.\n    /// @param owner Address of owner.\n    /// @return Allowance of token given to TokenTransferProxy by owner.\n    function getAllowance(address token, address owner)\n        internal\n        constant  // The called token contract may attempt to change state, but will not be able to due to an added gas limit.\n        returns (uint)\n    {\n        return Token(token).allowance.gas(EXTERNAL_QUERY_GAS_LIMIT)(owner, TOKEN_TRANSFER_PROXY_CONTRACT); // Limit gas to prevent reentrancy\n    }\n}",
  "sourcePath": "/Users/parkerplace/DAPPS/NotShapeshift/contracts/Exchange.sol",
  "compiler": {
    "name": "solc",
    "version": "0.4.19+commit.c4cbbb05.Emscripten.clang"
  },
  "schemaVersion": "1.0.1",
  "updatedAt": "2018-02-18T07:16:41.323Z"
}