{
  "contractName": "TokenTransferProxy",
  "abi": [
    {
      "constant": false,
      "inputs": [
        {
          "name": "target",
          "type": "address"
        }
      ],
      "name": "addAuthorizedAddress",
      "outputs": [],
      "payable": false,
      "stateMutability": "nonpayable",
      "type": "function"
    },
    {
      "constant": true,
      "inputs": [
        {
          "name": "",
          "type": "uint256"
        }
      ],
      "name": "authorities",
      "outputs": [
        {
          "name": "",
          "type": "address"
        }
      ],
      "payable": false,
      "stateMutability": "view",
      "type": "function"
    },
    {
      "constant": false,
      "inputs": [
        {
          "name": "target",
          "type": "address"
        }
      ],
      "name": "removeAuthorizedAddress",
      "outputs": [],
      "payable": false,
      "stateMutability": "nonpayable",
      "type": "function"
    },
    {
      "constant": true,
      "inputs": [],
      "name": "owner",
      "outputs": [
        {
          "name": "",
          "type": "address"
        }
      ],
      "payable": false,
      "stateMutability": "view",
      "type": "function"
    },
    {
      "constant": true,
      "inputs": [
        {
          "name": "",
          "type": "address"
        }
      ],
      "name": "authorized",
      "outputs": [
        {
          "name": "",
          "type": "bool"
        }
      ],
      "payable": false,
      "stateMutability": "view",
      "type": "function"
    },
    {
      "constant": true,
      "inputs": [],
      "name": "getAuthorizedAddresses",
      "outputs": [
        {
          "name": "",
          "type": "address[]"
        }
      ],
      "payable": false,
      "stateMutability": "view",
      "type": "function"
    },
    {
      "constant": false,
      "inputs": [
        {
          "name": "newOwner",
          "type": "address"
        }
      ],
      "name": "transferOwnership",
      "outputs": [],
      "payable": false,
      "stateMutability": "nonpayable",
      "type": "function"
    },
    {
      "anonymous": false,
      "inputs": [
        {
          "indexed": true,
          "name": "target",
          "type": "address"
        },
        {
          "indexed": true,
          "name": "caller",
          "type": "address"
        }
      ],
      "name": "LogAuthorizedAddressAdded",
      "type": "event"
    },
    {
      "anonymous": false,
      "inputs": [
        {
          "indexed": true,
          "name": "target",
          "type": "address"
        },
        {
          "indexed": true,
          "name": "caller",
          "type": "address"
        }
      ],
      "name": "LogAuthorizedAddressRemoved",
      "type": "event"
    },
    {
      "constant": false,
      "inputs": [
        {
          "name": "token",
          "type": "address"
        },
        {
          "name": "from",
          "type": "address"
        },
        {
          "name": "to",
          "type": "address"
        },
        {
          "name": "value",
          "type": "uint256"
        }
      ],
      "name": "transferFrom",
      "outputs": [
        {
          "name": "",
          "type": "bool"
        }
      ],
      "payable": false,
      "stateMutability": "nonpayable",
      "type": "function"
    }
  ],
  "bytecode": "0x6060604052336000806101000a81548173ffffffffffffffffffffffffffffffffffffffff021916908373ffffffffffffffffffffffffffffffffffffffff160217905550610bc8806100536000396000f30060606040526004361061008e576000357c0100000000000000000000000000000000000000000000000000000000900463ffffffff16806315dacbea1461009357806342f1181e1461012b578063494503d41461016457806370712939146101c75780638da5cb5b14610200578063b918161114610255578063d39de6e9146102a6578063f2fde38b14610310575b600080fd5b341561009e57600080fd5b610111600480803573ffffffffffffffffffffffffffffffffffffffff1690602001909190803573ffffffffffffffffffffffffffffffffffffffff1690602001909190803573ffffffffffffffffffffffffffffffffffffffff16906020019091908035906020019091905050610349565b604051808215151515815260200191505060405180910390f35b341561013657600080fd5b610162600480803573ffffffffffffffffffffffffffffffffffffffff169060200190919050506104a7565b005b341561016f57600080fd5b6101856004808035906020019091905050610674565b604051808273ffffffffffffffffffffffffffffffffffffffff1673ffffffffffffffffffffffffffffffffffffffff16815260200191505060405180910390f35b34156101d257600080fd5b6101fe600480803573ffffffffffffffffffffffffffffffffffffffff169060200190919050506106b3565b005b341561020b57600080fd5b61021361095d565b604051808273ffffffffffffffffffffffffffffffffffffffff1673ffffffffffffffffffffffffffffffffffffffff16815260200191505060405180910390f35b341561026057600080fd5b61028c600480803573ffffffffffffffffffffffffffffffffffffffff16906020019091905050610982565b604051808215151515815260200191505060405180910390f35b34156102b157600080fd5b6102b96109a2565b6040518080602001828103825283818151815260200191508051906020019060200280838360005b838110156102fc5780820151818401526020810190506102e1565b505050509050019250505060405180910390f35b341561031b57600080fd5b610347600480803573ffffffffffffffffffffffffffffffffffffffff16906020019091905050610a36565b005b6000600160003373ffffffffffffffffffffffffffffffffffffffff1673ffffffffffffffffffffffffffffffffffffffff16815260200190815260200160002060009054906101000a900460ff1615156103a357600080fd5b8473ffffffffffffffffffffffffffffffffffffffff166323b872dd8585856000604051602001526040518463ffffffff167c0100000000000000000000000000000000000000000000000000000000028152600401808473ffffffffffffffffffffffffffffffffffffffff1673ffffffffffffffffffffffffffffffffffffffff1681526020018373ffffffffffffffffffffffffffffffffffffffff1673ffffffffffffffffffffffffffffffffffffffff1681526020018281526020019350505050602060405180830381600087803b151561048257600080fd5b6102c65a03f1151561049357600080fd5b505050604051805190509050949350505050565b6000809054906101000a900473ffffffffffffffffffffffffffffffffffffffff1673ffffffffffffffffffffffffffffffffffffffff163373ffffffffffffffffffffffffffffffffffffffff1614151561050257600080fd5b80600160008273ffffffffffffffffffffffffffffffffffffffff1673ffffffffffffffffffffffffffffffffffffffff16815260200190815260200160002060009054906101000a900460ff1615151561055c57600080fd5b60018060008473ffffffffffffffffffffffffffffffffffffffff1673ffffffffffffffffffffffffffffffffffffffff16815260200190815260200160002060006101000a81548160ff021916908315150217905550600280548060010182816105c79190610b0b565b9160005260206000209001600084909190916101000a81548173ffffffffffffffffffffffffffffffffffffffff021916908373ffffffffffffffffffffffffffffffffffffffff160217905550503373ffffffffffffffffffffffffffffffffffffffff168273ffffffffffffffffffffffffffffffffffffffff167f94bb87f4c15c4587ff559a7584006fa01ddf9299359be6b512b94527aa961aca60405160405180910390a35050565b60028181548110151561068357fe5b90600052602060002090016000915054906101000a900473ffffffffffffffffffffffffffffffffffffffff1681565b60008060009054906101000a900473ffffffffffffffffffffffffffffffffffffffff1673ffffffffffffffffffffffffffffffffffffffff163373ffffffffffffffffffffffffffffffffffffffff1614151561071057600080fd5b81600160008273ffffffffffffffffffffffffffffffffffffffff1673ffffffffffffffffffffffffffffffffffffffff16815260200190815260200160002060009054906101000a900460ff16151561076957600080fd5b600160008473ffffffffffffffffffffffffffffffffffffffff1673ffffffffffffffffffffffffffffffffffffffff16815260200190815260200160002060006101000a81549060ff0219169055600091505b6002805490508210156108fe578273ffffffffffffffffffffffffffffffffffffffff166002838154811015156107f057fe5b906000526020600020900160009054906101000a900473ffffffffffffffffffffffffffffffffffffffff1673ffffffffffffffffffffffffffffffffffffffff1614156108f157600260016002805490500381548110151561084f57fe5b906000526020600020900160009054906101000a900473ffffffffffffffffffffffffffffffffffffffff1660028381548110151561088a57fe5b906000526020600020900160006101000a81548173ffffffffffffffffffffffffffffffffffffffff021916908373ffffffffffffffffffffffffffffffffffffffff16021790555060016002818180549050039150816108eb9190610b37565b506108fe565b81806001019250506107bd565b3373ffffffffffffffffffffffffffffffffffffffff168373ffffffffffffffffffffffffffffffffffffffff167ff5b347a1e40749dd050f5f07fbdbeb7e3efa9756903044dd29401fd1d4bb4a1c60405160405180910390a3505050565b6000809054906101000a900473ffffffffffffffffffffffffffffffffffffffff1681565b60016020528060005260406000206000915054906101000a900460ff1681565b6109aa610b63565b6002805480602002602001604051908101604052809291908181526020018280548015610a2c57602002820191906000526020600020905b8160009054906101000a900473ffffffffffffffffffffffffffffffffffffffff1673ffffffffffffffffffffffffffffffffffffffff16815260200190600101908083116109e2575b5050505050905090565b6000809054906101000a900473ffffffffffffffffffffffffffffffffffffffff1673ffffffffffffffffffffffffffffffffffffffff163373ffffffffffffffffffffffffffffffffffffffff16141515610a9157600080fd5b600073ffffffffffffffffffffffffffffffffffffffff168173ffffffffffffffffffffffffffffffffffffffff16141515610b0857806000806101000a81548173ffffffffffffffffffffffffffffffffffffffff021916908373ffffffffffffffffffffffffffffffffffffffff1602179055505b50565b815481835581811511610b3257818360005260206000209182019101610b319190610b77565b5b505050565b815481835581811511610b5e57818360005260206000209182019101610b5d9190610b77565b5b505050565b602060405190810160405280600081525090565b610b9991905b80821115610b95576000816000905550600101610b7d565b5090565b905600a165627a7a723058201aa16f2223c9c5730e60e315014ed46a7d015ef850c1eeb6eb73a8ad49c3d8660029",
  "source": "pragma solidity ^0.4.18;\n\ncontract Token {\n\n    /// @return total amount of tokens\n    function totalSupply() constant returns (uint supply) {}\n\n    /// @param _owner The address from which the balance will be retrieved\n    /// @return The balance\n    function balanceOf(address _owner) constant returns (uint balance) {}\n\n    /// @notice send `_value` token to `_to` from `msg.sender`\n    /// @param _to The address of the recipient\n    /// @param _value The amount of token to be transferred\n    /// @return Whether the transfer was successful or not\n    function transfer(address _to, uint _value) returns (bool success) {}\n\n    /// @notice send `_value` token to `_to` from `_from` on the condition it is approved by `_from`\n    /// @param _from The address of the sender\n    /// @param _to The address of the recipient\n    /// @param _value The amount of token to be transferred\n    /// @return Whether the transfer was successful or not\n    function transferFrom(address _from, address _to, uint _value) returns (bool success) {}\n\n    /// @notice `msg.sender` approves `_addr` to spend `_value` tokensi\n    /// @param _spender The address of the account able to transfer the tokens\n    /// @param _value The amount of wei to be approved for transfer\n    /// @return Whether the approval was successful or not\n    function approve(address _spender, uint _value) returns (bool success) {}\n\n    /// @param _owner The address of the account owning tokens\n    /// @param _spender The address of the account able to transfer the tokens\n    /// @return Amount of remaining tokens allowed to spent\n    function allowance(address _owner, address _spender) constant returns (uint remaining) {}\n\n    event Transfer(address indexed _from, address indexed _to, uint _value);\n    event Approval(address indexed _owner, address indexed _spender, uint _value);\n}\n\n/*\n * Ownable\n *\n * Base contract with an owner.\n * Provides onlyOwner modifier, which prevents function from running if it is called by anyone other than the owner.\n */\n\ncontract Ownable {\n    address public owner;\n\n    function Ownable() {\n        owner = msg.sender;\n    }\n\n    modifier onlyOwner() {\n        require(msg.sender == owner);\n        _;\n    }\n\n    function transferOwnership(address newOwner) onlyOwner {\n        if (newOwner != address(0)) {\n            owner = newOwner;\n        }\n    }\n}\n\n/// @title TokenTransferProxy - Transfers tokens on behalf of contracts that have been approved via decentralized governance.\n/// @author Amir Bandeali - <amir@0xProject.com>, Will Warren - <will@0xProject.com>\ncontract TokenTransferProxy is Ownable {\n\n    /// @dev Only authorized addresses can invoke functions with this modifier.\n    modifier onlyAuthorized {\n        require(authorized[msg.sender]);\n        _;\n    }\n\n    modifier targetAuthorized(address target) {\n        require(authorized[target]);\n        _;\n    }\n\n    modifier targetNotAuthorized(address target) {\n        require(!authorized[target]);\n        _;\n    }\n\n    mapping (address => bool) public authorized;\n    address[] public authorities;\n\n    event LogAuthorizedAddressAdded(address indexed target, address indexed caller);\n    event LogAuthorizedAddressRemoved(address indexed target, address indexed caller);\n\n    /*\n     * Public functions\n     */\n\n    /// @dev Authorizes an address.\n    /// @param target Address to authorize.\n    function addAuthorizedAddress(address target)\n        public\n        onlyOwner\n        targetNotAuthorized(target)\n    {\n        authorized[target] = true;\n        authorities.push(target);\n        LogAuthorizedAddressAdded(target, msg.sender);\n    }\n\n    /// @dev Removes authorizion of an address.\n    /// @param target Address to remove authorization from.\n    function removeAuthorizedAddress(address target)\n        public\n        onlyOwner\n        targetAuthorized(target)\n    {\n        delete authorized[target];\n        for (uint i = 0; i < authorities.length; i++) {\n            if (authorities[i] == target) {\n                authorities[i] = authorities[authorities.length - 1];\n                authorities.length -= 1;\n                break;\n            }\n        }\n        LogAuthorizedAddressRemoved(target, msg.sender);\n    }\n\n    /// @dev Calls into ERC20 Token contract, invoking transferFrom.\n    /// @param token Address of token to transfer.\n    /// @param from Address to transfer token from.\n    /// @param to Address to transfer token to.\n    /// @param value Amount of token to transfer.\n    /// @return Success of transfer.\n    function transferFrom(\n        address token,\n        address from,\n        address to,\n        uint value)\n        public\n        onlyAuthorized\n        returns (bool)\n    {\n        return Token(token).transferFrom(from, to, value);\n    }\n\n    /*\n     * Public constant functions\n     */\n\n    /// @dev Gets all authorized addresses.\n    /// @return Array of authorized addresses.\n    function getAuthorizedAddresses()\n        public\n        constant\n        returns (address[])\n    {\n        return authorities;\n    }\n}",
  "sourcePath": "/Users/parkerplace/DAPPS/NotShapeshift/contracts/Token.sol",
  "compiler": {
    "name": "solc",
    "version": "0.4.19+commit.c4cbbb05.Emscripten.clang"
  },
  "schemaVersion": "1.0.1",
  "updatedAt": "2018-02-18T07:16:41.371Z"
}